{
  "address": "0x294c69bD8415219b41B68a2f065DeABB950dd489",
  "abi": [
    {
      "anonymous": false,
      "inputs": [
        {
          "indexed": false,
          "internalType": "address",
          "name": "sender",
          "type": "address"
        },
        {
          "indexed": false,
          "internalType": "uint256",
          "name": "amount",
          "type": "uint256"
        },
        {
          "indexed": false,
          "internalType": "address",
          "name": "tokenAddress",
          "type": "address"
        }
      ],
      "name": "Deposit",
      "type": "event"
    },
    {
      "anonymous": false,
      "inputs": [
        {
          "indexed": true,
          "internalType": "address",
          "name": "previousOwner",
          "type": "address"
        },
        {
          "indexed": true,
          "internalType": "address",
          "name": "newOwner",
          "type": "address"
        }
      ],
      "name": "OwnershipTransferred",
      "type": "event"
    },
    {
      "anonymous": false,
      "inputs": [
        {
          "indexed": false,
          "internalType": "address",
          "name": "sideTokenBtc",
          "type": "address"
        },
        {
          "indexed": false,
          "internalType": "uint256",
          "name": "amountSwapped",
          "type": "uint256"
        }
      ],
      "name": "RbtcSwapRbtc",
      "type": "event"
    },
    {
      "anonymous": false,
      "inputs": [
        {
          "indexed": false,
          "internalType": "address",
          "name": "sideTokenBtc",
          "type": "address"
        },
        {
          "indexed": false,
          "internalType": "uint256",
          "name": "amountSwapped",
          "type": "uint256"
        }
      ],
      "name": "RbtcSwapSideToken",
      "type": "event"
    },
    {
      "anonymous": false,
      "inputs": [
        {
          "indexed": true,
          "internalType": "address",
          "name": "src",
          "type": "address"
        },
        {
          "indexed": false,
          "internalType": "uint256",
          "name": "wad",
          "type": "uint256"
        }
      ],
      "name": "WithdrawalRBTC",
      "type": "event"
    },
    {
      "anonymous": false,
      "inputs": [
        {
          "indexed": true,
          "internalType": "address",
          "name": "src",
          "type": "address"
        },
        {
          "indexed": false,
          "internalType": "uint256",
          "name": "wad",
          "type": "uint256"
        }
      ],
      "name": "WithdrawalSideTokenBtc",
      "type": "event"
    },
    {
      "anonymous": false,
      "inputs": [
        {
          "indexed": false,
          "internalType": "address",
          "name": "sideTokenBtc",
          "type": "address"
        }
      ],
      "name": "sideTokenBtcAdded",
      "type": "event"
    },
    {
      "anonymous": false,
      "inputs": [
        {
          "indexed": false,
          "internalType": "address",
          "name": "sideTokenBtc",
          "type": "address"
        }
      ],
      "name": "sideTokenBtcRemoved",
      "type": "event"
    },
    {
      "inputs": [
        {
          "internalType": "address",
          "name": "sideTokenBtcContract",
          "type": "address"
        }
      ],
      "name": "addSideTokenBtc",
      "outputs": [],
      "stateMutability": "nonpayable",
      "type": "function"
    },
    {
      "inputs": [
        {
          "internalType": "address",
          "name": "",
          "type": "address"
        }
      ],
      "name": "balance",
      "outputs": [
        {
          "internalType": "uint256",
          "name": "",
          "type": "uint256"
        }
      ],
      "stateMutability": "view",
      "type": "function"
    },
    {
      "inputs": [
        {
          "internalType": "address",
          "name": "sideTokenBtcContract",
          "type": "address"
        }
      ],
      "name": "containsSideTokenBtc",
      "outputs": [
        {
          "internalType": "bool",
          "name": "",
          "type": "bool"
        }
      ],
      "stateMutability": "view",
      "type": "function"
    },
    {
      "inputs": [],
      "name": "fee",
      "outputs": [
        {
          "internalType": "uint256",
          "name": "",
          "type": "uint256"
        }
      ],
      "stateMutability": "view",
      "type": "function"
    },
    {
      "inputs": [
        {
          "internalType": "address",
          "name": "sideTokenBtcContract",
          "type": "address"
        }
      ],
      "name": "initialize",
      "outputs": [],
      "stateMutability": "nonpayable",
      "type": "function"
    },
    {
      "inputs": [],
      "name": "lengthSideTokenBtc",
      "outputs": [
        {
          "internalType": "uint256",
          "name": "",
          "type": "uint256"
        }
      ],
      "stateMutability": "view",
      "type": "function"
    },
    {
      "inputs": [],
      "name": "owner",
      "outputs": [
        {
          "internalType": "address",
          "name": "",
          "type": "address"
        }
      ],
      "stateMutability": "view",
      "type": "function"
    },
    {
      "inputs": [
        {
          "internalType": "address",
          "name": "sideTokenBtcContract",
          "type": "address"
        }
      ],
      "name": "removeSideTokenBtc",
      "outputs": [],
      "stateMutability": "nonpayable",
      "type": "function"
    },
    {
      "inputs": [],
      "name": "renounceOwnership",
      "outputs": [],
      "stateMutability": "nonpayable",
      "type": "function"
    },
    {
      "inputs": [
        {
          "internalType": "uint256",
          "name": "index",
          "type": "uint256"
        }
      ],
      "name": "sideTokenBtcAt",
      "outputs": [
        {
          "internalType": "address",
          "name": "",
          "type": "address"
        }
      ],
      "stateMutability": "view",
      "type": "function"
    },
    {
      "inputs": [
        {
          "internalType": "uint256",
          "name": "amount",
          "type": "uint256"
        },
        {
          "internalType": "address",
          "name": "sideTokenBtcContract",
          "type": "address"
        }
      ],
      "name": "swapRBTCtoSideTokenBtc",
      "outputs": [
        {
          "internalType": "uint256",
          "name": "",
          "type": "uint256"
        }
      ],
      "stateMutability": "payable",
      "type": "function"
    },
    {
      "inputs": [
        {
          "internalType": "uint256",
          "name": "amount",
          "type": "uint256"
        },
        {
          "internalType": "address",
          "name": "sideTokenBtcContract",
          "type": "address"
        }
      ],
      "name": "swapSideTokenBtctoRBTC",
      "outputs": [
        {
          "internalType": "uint256",
          "name": "",
          "type": "uint256"
        }
      ],
      "stateMutability": "nonpayable",
      "type": "function"
    },
    {
      "inputs": [
        {
          "internalType": "address",
          "name": "",
          "type": "address"
        },
        {
          "internalType": "address",
          "name": "from",
          "type": "address"
        },
        {
          "internalType": "address",
          "name": "to",
          "type": "address"
        },
        {
          "internalType": "uint256",
          "name": "amount",
          "type": "uint256"
        },
        {
          "internalType": "bytes",
          "name": "",
          "type": "bytes"
        },
        {
          "internalType": "bytes",
          "name": "",
          "type": "bytes"
        }
      ],
      "name": "tokensReceived",
      "outputs": [],
      "stateMutability": "nonpayable",
      "type": "function"
    },
    {
      "inputs": [
        {
          "internalType": "address",
          "name": "newOwner",
          "type": "address"
        }
      ],
      "name": "transferOwnership",
      "outputs": [],
      "stateMutability": "nonpayable",
      "type": "function"
    },
    {
      "inputs": [
        {
          "internalType": "uint256",
          "name": "amount",
          "type": "uint256"
        }
      ],
      "name": "withdrawalRBTC",
      "outputs": [],
      "stateMutability": "nonpayable",
      "type": "function"
    },
    {
      "inputs": [
        {
          "internalType": "uint256",
          "name": "amount",
          "type": "uint256"
        },
        {
          "internalType": "address",
          "name": "sideTokenBtcContract",
          "type": "address"
        }
      ],
      "name": "withdrawalSideTokenBtc",
      "outputs": [],
      "stateMutability": "nonpayable",
      "type": "function"
    },
    {
      "stateMutability": "payable",
      "type": "receive"
    }
  ],
  "transactionHash": "0x196d583e1fb985b3d2c870fd8080ff3d33547720d6eb59c01d847a222e4d4350",
  "args": [],
  "numDeployments": 2,
  "solcInputHash": "14fcc2dd49cca0cc89c2adeaa70b4b1d",
  "bytecode": "0x608060405234801561001057600080fd5b50612c1f806100206000396000f3fe6080604052600436106100f65760003560e01c8063c5e3e5411161008a578063ec13a21611610059578063ec13a21614610324578063f2347ee41461034d578063f2fde38b1461038a578063fadc396e146103b357610110565b8063c5e3e54114610256578063ddca3f4314610293578063e3d670d7146102be578063e67c7973146102fb57610110565b8063803a48ea116100c6578063803a48ea146101a75780638da5cb5b146101d757806397aab46a14610202578063c4d66de81461022d57610110565b806223de2914610115578063073b1e5d1461013e5780636744283614610167578063715018a61461019057610110565b366101105761010e6101066103f0565b3460006103f8565b005b600080fd5b34801561012157600080fd5b5061013c60048036038101906101379190611e43565b61048e565b005b34801561014a57600080fd5b5061016560048036038101906101609190611f12565b6105ac565b005b34801561017357600080fd5b5061018e60048036038101906101899190611f52565b6108e8565b005b34801561019c57600080fd5b506101a5610970565b005b6101c160048036038101906101bc9190611f12565b6109f8565b6040516101ce9190611f8e565b60405180910390f35b3480156101e357600080fd5b506101ec610d5a565b6040516101f99190611fb8565b60405180910390f35b34801561020e57600080fd5b50610217610d84565b6040516102249190611f8e565b60405180910390f35b34801561023957600080fd5b50610254600480360381019061024f9190611f52565b610d95565b005b34801561026257600080fd5b5061027d60048036038101906102789190611fd3565b610f36565b60405161028a9190611fb8565b60405180910390f35b34801561029f57600080fd5b506102a8610f53565b6040516102b59190611f8e565b60405180910390f35b3480156102ca57600080fd5b506102e560048036038101906102e09190611f52565b610f59565b6040516102f29190611f8e565b60405180910390f35b34801561030757600080fd5b50610322600480360381019061031d9190611fd3565b610f71565b005b34801561033057600080fd5b5061034b60048036038101906103469190611f52565b6111a6565b005b34801561035957600080fd5b50610374600480360381019061036f9190611f52565b61122e565b604051610381919061201b565b60405180910390f35b34801561039657600080fd5b506103b160048036038101906103ac9190611f52565b61124b565b005b3480156103bf57600080fd5b506103da60048036038101906103d59190611f12565b611343565b6040516103e79190611f8e565b60405180910390f35b600033905090565b81606860008573ffffffffffffffffffffffffffffffffffffffff1673ffffffffffffffffffffffffffffffffffffffff16815260200190815260200160002060008282546104479190612065565b925050819055507fe31c7b8d08ee7db0afa68782e1028ef92305caeea8626633ad44d413e30f6b2f838383604051610481939291906120bb565b60405180910390a1505050565b60006104986103f0565b90503073ffffffffffffffffffffffffffffffffffffffff168873ffffffffffffffffffffffffffffffffffffffff1614156104d457506105a2565b3073ffffffffffffffffffffffffffffffffffffffff168773ffffffffffffffffffffffffffffffffffffffff1614610542576040517f08c379a00000000000000000000000000000000000000000000000000000000081526004016105399061214f565b60405180910390fd5b61055681606561167c90919063ffffffff16565b610595576040517f08c379a000000000000000000000000000000000000000000000000000000000815260040161058c906121bb565b60405180910390fd5b6105a08887836103f8565b505b5050505050505050565b6105c081606561167c90919063ffffffff16565b6105ff576040517f08c379a00000000000000000000000000000000000000000000000000000000081526004016105f6906121bb565b60405180910390fd5b816068600061060c6103f0565b73ffffffffffffffffffffffffffffffffffffffff1673ffffffffffffffffffffffffffffffffffffffff168152602001908152602001600020541015610688576040517f08c379a000000000000000000000000000000000000000000000000000000000815260040161067f90612227565b60405180910390fd5b6000819050828173ffffffffffffffffffffffffffffffffffffffff166370a08231306040518263ffffffff1660e01b81526004016106c79190611fb8565b60206040518083038186803b1580156106df57600080fd5b505afa1580156106f3573d6000803e3d6000fd5b505050506040513d601f19601f82011682018060405250810190610717919061225c565b1015610758576040517f08c379a000000000000000000000000000000000000000000000000000000000815260040161074f906122d5565b60405180910390fd5b82606860006107656103f0565b73ffffffffffffffffffffffffffffffffffffffff1673ffffffffffffffffffffffffffffffffffffffff16815260200190815260200160002060008282546107ae91906122f5565b9250508190555060008273ffffffffffffffffffffffffffffffffffffffff1663a9059cbb6107db6103f0565b866040518363ffffffff1660e01b81526004016107f9929190612329565b602060405180830381600087803b15801561081357600080fd5b505af1158015610827573d6000803e3d6000fd5b505050506040513d601f19601f8201168201806040525081019061084b919061237e565b90508061088d576040517f08c379a00000000000000000000000000000000000000000000000000000000081526004016108849061241d565b60405180910390fd5b6108956103f0565b73ffffffffffffffffffffffffffffffffffffffff167f309f97aacc7a2d05d51f6f49e6fbf88d07ce3cc150b737f2cee636f3b7ba1418856040516108da9190611f8e565b60405180910390a250505050565b6108f06103f0565b73ffffffffffffffffffffffffffffffffffffffff1661090e610d5a565b73ffffffffffffffffffffffffffffffffffffffff1614610964576040517f08c379a000000000000000000000000000000000000000000000000000000000815260040161095b90612489565b60405180910390fd5b61096d816116ac565b50565b6109786103f0565b73ffffffffffffffffffffffffffffffffffffffff16610996610d5a565b73ffffffffffffffffffffffffffffffffffffffff16146109ec576040517f08c379a00000000000000000000000000000000000000000000000000000000081526004016109e390612489565b60405180910390fd5b6109f660006117be565b565b6000610a0e82606561167c90919063ffffffff16565b610a4d576040517f08c379a0000000000000000000000000000000000000000000000000000000008152600401610a44906121bb565b60405180910390fd5b60008290506000610a5c6103f0565b905084471015610aa1576040517f08c379a0000000000000000000000000000000000000000000000000000000008152600401610a98906122d5565b60405180910390fd5b848273ffffffffffffffffffffffffffffffffffffffff166370a08231306040518263ffffffff1660e01b8152600401610adb9190611fb8565b60206040518083038186803b158015610af357600080fd5b505afa158015610b07573d6000803e3d6000fd5b505050506040513d601f19601f82011682018060405250810190610b2b919061225c565b1015610b6c576040517f08c379a0000000000000000000000000000000000000000000000000000000008152600401610b63906124f5565b60405180910390fd5b84606860008373ffffffffffffffffffffffffffffffffffffffff1673ffffffffffffffffffffffffffffffffffffffff168152602001908152602001600020541015610bee576040517f08c379a0000000000000000000000000000000000000000000000000000000008152600401610be590612587565b60405180910390fd5b84606860008373ffffffffffffffffffffffffffffffffffffffff1673ffffffffffffffffffffffffffffffffffffffff1681526020019081526020016000206000828254610c3d91906122f5565b9250508190555060008473ffffffffffffffffffffffffffffffffffffffff1663a9059cbb83886040518363ffffffff1660e01b8152600401610c81929190612329565b602060405180830381600087803b158015610c9b57600080fd5b505af1158015610caf573d6000803e3d6000fd5b505050506040513d601f19601f82011682018060405250810190610cd3919061237e565b905080610d15576040517f08c379a0000000000000000000000000000000000000000000000000000000008152600401610d0c906125f3565b60405180910390fd5b7f52dcf9c6599739b95a0ee3e6c7beea670b681fd395cb9e76eca9409391033b898387604051610d46929190612329565b60405180910390a185935050505092915050565b6000603360009054906101000a900473ffffffffffffffffffffffffffffffffffffffff16905090565b6000610d906065611884565b905090565b600060019054906101000a900460ff16610dbd5760008054906101000a900460ff1615610dc6565b610dc5611899565b5b610e05576040517f08c379a0000000000000000000000000000000000000000000000000000000008152600401610dfc90612685565b60405180910390fd5b60008060019054906101000a900460ff161590508015610e55576001600060016101000a81548160ff02191690831515021790555060016000806101000a81548160ff0219169083151502179055505b610e5e826118aa565b6000606781905550731820a4b7618bde71dce8cdc73aab6c95905fad2473ffffffffffffffffffffffffffffffffffffffff166329965a1d307fb281fc8c12954d22544db45de3159a39272895b169a852b314f9cc762e44c53b306040518463ffffffff1660e01b8152600401610ed7939291906126f7565b600060405180830381600087803b158015610ef157600080fd5b505af1158015610f05573d6000803e3d6000fd5b50505050610f116119bd565b8015610f325760008060016101000a81548160ff0219169083151502179055505b5050565b6000610f4c826065611a1e90919063ffffffff16565b9050919050565b60675481565b60686020528060005260406000206000915090505481565b80471015610fb4576040517f08c379a0000000000000000000000000000000000000000000000000000000008152600401610fab906122d5565b60405180910390fd5b8060686000610fc16103f0565b73ffffffffffffffffffffffffffffffffffffffff1673ffffffffffffffffffffffffffffffffffffffff16815260200190815260200160002054101561103d576040517f08c379a000000000000000000000000000000000000000000000000000000000815260040161103490612227565b60405180910390fd5b806068600061104a6103f0565b73ffffffffffffffffffffffffffffffffffffffff1673ffffffffffffffffffffffffffffffffffffffff168152602001908152602001600020600082825461109391906122f5565b9250508190555060006110a46103f0565b73ffffffffffffffffffffffffffffffffffffffff16826040516110c79061275f565b60006040518083038185875af1925050503d8060008114611104576040519150601f19603f3d011682016040523d82523d6000602084013e611109565b606091505b505090508061114d576040517f08c379a0000000000000000000000000000000000000000000000000000000008152600401611144906127c0565b60405180910390fd5b6111556103f0565b73ffffffffffffffffffffffffffffffffffffffff167fac3ced7ebc0f62e1780ce041c7bca97e6a868d3825e0c5e63645d81667a1ef478360405161119a9190611f8e565b60405180910390a25050565b6111ae6103f0565b73ffffffffffffffffffffffffffffffffffffffff166111cc610d5a565b73ffffffffffffffffffffffffffffffffffffffff1614611222576040517f08c379a000000000000000000000000000000000000000000000000000000000815260040161121990612489565b60405180910390fd5b61122b816118aa565b50565b600061124482606561167c90919063ffffffff16565b9050919050565b6112536103f0565b73ffffffffffffffffffffffffffffffffffffffff16611271610d5a565b73ffffffffffffffffffffffffffffffffffffffff16146112c7576040517f08c379a00000000000000000000000000000000000000000000000000000000081526004016112be90612489565b60405180910390fd5b600073ffffffffffffffffffffffffffffffffffffffff168173ffffffffffffffffffffffffffffffffffffffff161415611337576040517f08c379a000000000000000000000000000000000000000000000000000000000815260040161132e90612852565b60405180910390fd5b611340816117be565b50565b600061135982606561167c90919063ffffffff16565b611398576040517f08c379a000000000000000000000000000000000000000000000000000000000815260040161138f906121bb565b60405180910390fd5b600082905060006113a76103f0565b9050848273ffffffffffffffffffffffffffffffffffffffff166370a08231836040518263ffffffff1660e01b81526004016113e391906128d1565b60206040518083038186803b1580156113fb57600080fd5b505afa15801561140f573d6000803e3d6000fd5b505050506040513d601f19601f82011682018060405250810190611433919061225c565b1015611474576040517f08c379a000000000000000000000000000000000000000000000000000000000815260040161146b906124f5565b60405180910390fd5b60008273ffffffffffffffffffffffffffffffffffffffff166323b872dd8330896040518463ffffffff1660e01b81526004016114b3939291906128ec565b602060405180830381600087803b1580156114cd57600080fd5b505af11580156114e1573d6000803e3d6000fd5b505050506040513d601f19601f82011682018060405250810190611505919061237e565b905080611547576040517f08c379a000000000000000000000000000000000000000000000000000000000815260040161153e906125f3565b60405180910390fd5b8547101561158a576040517f08c379a0000000000000000000000000000000000000000000000000000000008152600401611581906122d5565b60405180910390fd5b60008273ffffffffffffffffffffffffffffffffffffffff16876040516115b09061275f565b60006040518083038185875af1925050503d80600081146115ed576040519150601f19603f3d011682016040523d82523d6000602084013e6115f2565b606091505b5050905080611636576040517f08c379a000000000000000000000000000000000000000000000000000000000815260040161162d9061296f565b60405180910390fd5b7f9b7cc79a7695841c987748d37c497f0ccc8c3828cb7d1e90abc727e2d262e1118488604051611667929190612329565b60405180910390a18694505050505092915050565b60006116a4836000018373ffffffffffffffffffffffffffffffffffffffff1660001b611a38565b905092915050565b600073ffffffffffffffffffffffffffffffffffffffff168173ffffffffffffffffffffffffffffffffffffffff16141561171c576040517f08c379a0000000000000000000000000000000000000000000000000000000008152600401611713906129db565b60405180910390fd5b61173081606561167c90919063ffffffff16565b61176f576040517f08c379a000000000000000000000000000000000000000000000000000000000815260040161176690612a47565b60405180910390fd5b611783816065611a5b90919063ffffffff16565b507f7bc6a2dbdd6490b0e94125d3e4df5d96d92b84835ab35a2a0abce4bc4693fd0c816040516117b39190611fb8565b60405180910390a150565b6000603360009054906101000a900473ffffffffffffffffffffffffffffffffffffffff16905081603360006101000a81548173ffffffffffffffffffffffffffffffffffffffff021916908373ffffffffffffffffffffffffffffffffffffffff1602179055508173ffffffffffffffffffffffffffffffffffffffff168173ffffffffffffffffffffffffffffffffffffffff167f8be0079c531659141344cd1fd0a4f28419497f9722a3daafe3b4186f6b6457e060405160405180910390a35050565b600061189282600001611a8b565b9050919050565b60006118a430611a9c565b15905090565b600073ffffffffffffffffffffffffffffffffffffffff168173ffffffffffffffffffffffffffffffffffffffff16141561191a576040517f08c379a0000000000000000000000000000000000000000000000000000000008152600401611911906129db565b60405180910390fd5b61192e81606561167c90919063ffffffff16565b1561196e576040517f08c379a000000000000000000000000000000000000000000000000000000000815260040161196590612ad9565b60405180910390fd5b611982816065611aaf90919063ffffffff16565b507ff919e247c8640e0dc5ea2505455e2a680f59e1038b1dddef02abc4067753f5b0816040516119b29190611fb8565b60405180910390a150565b600060019054906101000a900460ff16611a0c576040517f08c379a0000000000000000000000000000000000000000000000000000000008152600401611a0390612b6b565b60405180910390fd5b611a14611adf565b611a1c611b30565b565b6000611a2d8360000183611b91565b60001c905092915050565b600080836001016000848152602001908152602001600020541415905092915050565b6000611a83836000018373ffffffffffffffffffffffffffffffffffffffff1660001b611bbc565b905092915050565b600081600001805490509050919050565b600080823b905060008111915050919050565b6000611ad7836000018373ffffffffffffffffffffffffffffffffffffffff1660001b611cd0565b905092915050565b600060019054906101000a900460ff16611b2e576040517f08c379a0000000000000000000000000000000000000000000000000000000008152600401611b2590612b6b565b60405180910390fd5b565b600060019054906101000a900460ff16611b7f576040517f08c379a0000000000000000000000000000000000000000000000000000000008152600401611b7690612b6b565b60405180910390fd5b611b8f611b8a6103f0565b6117be565b565b6000826000018281548110611ba957611ba8612b8b565b5b9060005260206000200154905092915050565b60008083600101600084815260200190815260200160002054905060008114611cc4576000600182611bee91906122f5565b9050600060018660000180549050611c0691906122f5565b9050818114611c75576000866000018281548110611c2757611c26612b8b565b5b9060005260206000200154905080876000018481548110611c4b57611c4a612b8b565b5b90600052602060002001819055508387600101600083815260200190815260200160002081905550505b85600001805480611c8957611c88612bba565b5b600190038181906000526020600020016000905590558560010160008681526020019081526020016000206000905560019350505050611cca565b60009150505b92915050565b6000611cdc8383611a38565b611d35578260000182908060018154018082558091505060019003906000526020600020016000909190919091505582600001805490508360010160008481526020019081526020016000208190555060019050611d3a565b600090505b92915050565b600080fd5b600080fd5b600073ffffffffffffffffffffffffffffffffffffffff82169050919050565b6000611d7582611d4a565b9050919050565b611d8581611d6a565b8114611d9057600080fd5b50565b600081359050611da281611d7c565b92915050565b6000819050919050565b611dbb81611da8565b8114611dc657600080fd5b50565b600081359050611dd881611db2565b92915050565b600080fd5b600080fd5b600080fd5b60008083601f840112611e0357611e02611dde565b5b8235905067ffffffffffffffff811115611e2057611e1f611de3565b5b602083019150836001820283011115611e3c57611e3b611de8565b5b9250929050565b60008060008060008060008060c0898b031215611e6357611e62611d40565b5b6000611e718b828c01611d93565b9850506020611e828b828c01611d93565b9750506040611e938b828c01611d93565b9650506060611ea48b828c01611dc9565b955050608089013567ffffffffffffffff811115611ec557611ec4611d45565b5b611ed18b828c01611ded565b945094505060a089013567ffffffffffffffff811115611ef457611ef3611d45565b5b611f008b828c01611ded565b92509250509295985092959890939650565b60008060408385031215611f2957611f28611d40565b5b6000611f3785828601611dc9565b9250506020611f4885828601611d93565b9150509250929050565b600060208284031215611f6857611f67611d40565b5b6000611f7684828501611d93565b91505092915050565b611f8881611da8565b82525050565b6000602082019050611fa36000830184611f7f565b92915050565b611fb281611d6a565b82525050565b6000602082019050611fcd6000830184611fa9565b92915050565b600060208284031215611fe957611fe8611d40565b5b6000611ff784828501611dc9565b91505092915050565b60008115159050919050565b61201581612000565b82525050565b6000602082019050612030600083018461200c565b92915050565b7f4e487b7100000000000000000000000000000000000000000000000000000000600052601160045260246000fd5b600061207082611da8565b915061207b83611da8565b9250827fffffffffffffffffffffffffffffffffffffffffffffffffffffffffffffffff038211156120b0576120af612036565b5b828201905092915050565b60006060820190506120d06000830186611fa9565b6120dd6020830185611f7f565b6120ea6040830184611fa9565b949350505050565b600082825260208201905092915050565b7f53776170524254433a20496e76616c69642027746f2720616464726573730000600082015250565b6000612139601e836120f2565b915061214482612103565b602082019050919050565b600060208201905081810360008301526121688161212c565b9050919050565b7f53776170524254433a205369646520546f6b656e206e6f7420666f756e640000600082015250565b60006121a5601e836120f2565b91506121b08261216f565b602082019050919050565b600060208201905081810360008301526121d481612198565b9050919050565b7f53776170524254433a20616d6f756e74203e2073656e64657242616c616e6365600082015250565b60006122116020836120f2565b915061221c826121db565b602082019050919050565b6000602082019050818103600083015261224081612204565b9050919050565b60008151905061225681611db2565b92915050565b60006020828403121561227257612271611d40565b5b600061228084828501612247565b91505092915050565b7f53776170524254433a20616d6f756e74203e2062616c616e6365000000000000600082015250565b60006122bf601a836120f2565b91506122ca82612289565b602082019050919050565b600060208201905081810360008301526122ee816122b2565b9050919050565b600061230082611da8565b915061230b83611da8565b92508282101561231e5761231d612036565b5b828203905092915050565b600060408201905061233e6000830185611fa9565b61234b6020830184611f7f565b9392505050565b61235b81612000565b811461236657600080fd5b50565b60008151905061237881612352565b92915050565b60006020828403121561239457612393611d40565b5b60006123a284828501612369565b91505092915050565b7f53776170524254433a207769746864726177616c53696465546f6b656e42746360008201527f206661696c656400000000000000000000000000000000000000000000000000602082015250565b60006124076027836120f2565b9150612412826123ab565b604082019050919050565b60006020820190508181036000830152612436816123fa565b9050919050565b7f4f776e61626c653a2063616c6c6572206973206e6f7420746865206f776e6572600082015250565b60006124736020836120f2565b915061247e8261243d565b602082019050919050565b600060208201905081810360008301526124a281612466565b9050919050565b7f53776170524254433a206e6f7420656e6f7567682062616c616e636500000000600082015250565b60006124df601c836120f2565b91506124ea826124a9565b602082019050919050565b6000602082019050818103600083015261250e816124d2565b9050919050565b7f53776170524254433a2073656e646572206e6f7420656e6f7567682062616c6160008201527f6e63650000000000000000000000000000000000000000000000000000000000602082015250565b60006125716023836120f2565b915061257c82612515565b604082019050919050565b600060208201905081810360008301526125a081612564565b9050919050565b7f53776170524254433a205472616e736665722073656e646572206661696c6564600082015250565b60006125dd6020836120f2565b91506125e8826125a7565b602082019050919050565b6000602082019050818103600083015261260c816125d0565b9050919050565b7f496e697469616c697a61626c653a20636f6e747261637420697320616c72656160008201527f647920696e697469616c697a6564000000000000000000000000000000000000602082015250565b600061266f602e836120f2565b915061267a82612613565b604082019050919050565b6000602082019050818103600083015261269e81612662565b9050919050565b6000819050919050565b6000819050919050565b60008160001b9050919050565b60006126e16126dc6126d7846126a5565b6126b9565b6126af565b9050919050565b6126f1816126c6565b82525050565b600060608201905061270c6000830186611fa9565b61271960208301856126e8565b6127266040830184611fa9565b949350505050565b600081905092915050565b50565b600061274960008361272e565b915061275482612739565b600082019050919050565b600061276a8261273c565b9150819050919050565b7f53776170524254433a207769746864726177616c52425443206661696c656400600082015250565b60006127aa601f836120f2565b91506127b582612774565b602082019050919050565b600060208201905081810360008301526127d98161279d565b9050919050565b7f4f776e61626c653a206e6577206f776e657220697320746865207a65726f206160008201527f6464726573730000000000000000000000000000000000000000000000000000602082015250565b600061283c6026836120f2565b9150612847826127e0565b604082019050919050565b6000602082019050818103600083015261286b8161282f565b9050919050565b6000819050919050565b600061289761289261288d84611d4a565b612872565b611d4a565b9050919050565b60006128a98261287c565b9050919050565b60006128bb8261289e565b9050919050565b6128cb816128b0565b82525050565b60006020820190506128e660008301846128c2565b92915050565b600060608201905061290160008301866128c2565b61290e6020830185611fa9565b61291b6040830184611f7f565b949350505050565b7f53776170524254433a20537761702063616c6c206661696c6564000000000000600082015250565b6000612959601a836120f2565b915061296482612923565b602082019050919050565b600060208201905081810360008301526129888161294c565b9050919050565b7f53776170524254433a2073696465425443206973206e756c6c00000000000000600082015250565b60006129c56019836120f2565b91506129d08261298f565b602082019050919050565b600060208201905081810360008301526129f4816129b8565b9050919050565b7f53776170524254433a207369646520746f6b656e206e6f7420666f756e646564600082015250565b6000612a316020836120f2565b9150612a3c826129fb565b602082019050919050565b60006020820190508181036000830152612a6081612a24565b9050919050565b7f53776170524254433a207369646520746f6b656e20616c726561647920696e6360008201527f6c75646564000000000000000000000000000000000000000000000000000000602082015250565b6000612ac36025836120f2565b9150612ace82612a67565b604082019050919050565b60006020820190508181036000830152612af281612ab6565b9050919050565b7f496e697469616c697a61626c653a20636f6e7472616374206973206e6f74206960008201527f6e697469616c697a696e67000000000000000000000000000000000000000000602082015250565b6000612b55602b836120f2565b9150612b6082612af9565b604082019050919050565b60006020820190508181036000830152612b8481612b48565b9050919050565b7f4e487b7100000000000000000000000000000000000000000000000000000000600052603260045260246000fd5b7f4e487b7100000000000000000000000000000000000000000000000000000000600052603160045260246000fdfea2646970667358221220f98068d7a3fc9d7a4c8218d6cea10e436ae96514617a2368910c36f848f104ff64736f6c63430008090033",
  "devdoc": {
    "kind": "dev",
    "methods": {
      "owner()": {
        "details": "Returns the address of the current owner."
      },
      "renounceOwnership()": {
        "details": "Leaves the contract without owner. It will not be possible to call `onlyOwner` functions anymore. Can only be called by the current owner. NOTE: Renouncing ownership will leave the contract without an owner, thereby removing any functionality that is only available to the owner."
      },
      "tokensReceived(address,address,address,uint256,bytes,bytes)": {
        "details": "Called by an `IERC777` token contract whenever tokens are being moved or created into a registered account (`to`). The type of operation is conveyed by `from` being the zero address or not. This call occurs _after_ the token contract's state is updated, so `IERC777.balanceOf`, etc., can be used to query the post-operation state. This function may revert to prevent the operation from being executed."
      },
      "transferOwnership(address)": {
        "details": "Transfers ownership of the contract to a new account (`newOwner`). Can only be called by the current owner."
      }
    },
    "version": 1
  },
  "userdoc": {
    "kind": "user",
    "methods": {},
    "version": 1
  },
  "storageLayout": {
    "storage": [
      {
        "astId": 132,
        "contract": "contracts/SwapRBTC.sol:SwapRBTC",
        "label": "_initialized",
        "offset": 0,
        "slot": "0",
        "type": "t_bool"
      },
      {
        "astId": 135,
        "contract": "contracts/SwapRBTC.sol:SwapRBTC",
        "label": "_initializing",
        "offset": 1,
        "slot": "0",
        "type": "t_bool"
      },
      {
        "astId": 789,
        "contract": "contracts/SwapRBTC.sol:SwapRBTC",
        "label": "__gap",
        "offset": 0,
        "slot": "1",
        "type": "t_array(t_uint256)50_storage"
      },
      {
        "astId": 10,
        "contract": "contracts/SwapRBTC.sol:SwapRBTC",
        "label": "_owner",
        "offset": 0,
        "slot": "51",
        "type": "t_address"
      },
      {
        "astId": 124,
        "contract": "contracts/SwapRBTC.sol:SwapRBTC",
        "label": "__gap",
        "offset": 0,
        "slot": "52",
        "type": "t_array(t_uint256)49_storage"
      },
      {
        "astId": 3273,
        "contract": "contracts/SwapRBTC.sol:SwapRBTC",
        "label": "enumerableSideTokenBtc",
        "offset": 0,
        "slot": "101",
        "type": "t_struct(AddressSet)1102_storage"
      },
      {
        "astId": 3281,
        "contract": "contracts/SwapRBTC.sol:SwapRBTC",
        "label": "fee",
        "offset": 0,
        "slot": "103",
        "type": "t_uint256"
      },
      {
        "astId": 3285,
        "contract": "contracts/SwapRBTC.sol:SwapRBTC",
        "label": "balance",
        "offset": 0,
        "slot": "104",
        "type": "t_mapping(t_address,t_uint256)"
      }
    ],
    "types": {
      "t_address": {
        "encoding": "inplace",
        "label": "address",
        "numberOfBytes": "20"
      },
      "t_array(t_bytes32)dyn_storage": {
        "base": "t_bytes32",
        "encoding": "dynamic_array",
        "label": "bytes32[]",
        "numberOfBytes": "32"
      },
      "t_array(t_uint256)49_storage": {
        "base": "t_uint256",
        "encoding": "inplace",
        "label": "uint256[49]",
        "numberOfBytes": "1568"
      },
      "t_array(t_uint256)50_storage": {
        "base": "t_uint256",
        "encoding": "inplace",
        "label": "uint256[50]",
        "numberOfBytes": "1600"
      },
      "t_bool": {
        "encoding": "inplace",
        "label": "bool",
        "numberOfBytes": "1"
      },
      "t_bytes32": {
        "encoding": "inplace",
        "label": "bytes32",
        "numberOfBytes": "32"
      },
      "t_mapping(t_address,t_uint256)": {
        "encoding": "mapping",
        "key": "t_address",
        "label": "mapping(address => uint256)",
        "numberOfBytes": "32",
        "value": "t_uint256"
      },
      "t_mapping(t_bytes32,t_uint256)": {
        "encoding": "mapping",
        "key": "t_bytes32",
        "label": "mapping(bytes32 => uint256)",
        "numberOfBytes": "32",
        "value": "t_uint256"
      },
      "t_struct(AddressSet)1102_storage": {
        "encoding": "inplace",
        "label": "struct EnumerableSetUpgradeable.AddressSet",
        "members": [
          {
            "astId": 1101,
            "contract": "contracts/SwapRBTC.sol:SwapRBTC",
            "label": "_inner",
            "offset": 0,
            "slot": "0",
            "type": "t_struct(Set)801_storage"
          }
        ],
        "numberOfBytes": "64"
      },
      "t_struct(Set)801_storage": {
        "encoding": "inplace",
        "label": "struct EnumerableSetUpgradeable.Set",
        "members": [
          {
            "astId": 796,
            "contract": "contracts/SwapRBTC.sol:SwapRBTC",
            "label": "_values",
            "offset": 0,
            "slot": "0",
            "type": "t_array(t_bytes32)dyn_storage"
          },
          {
            "astId": 800,
            "contract": "contracts/SwapRBTC.sol:SwapRBTC",
            "label": "_indexes",
            "offset": 0,
            "slot": "1",
            "type": "t_mapping(t_bytes32,t_uint256)"
          }
        ],
        "numberOfBytes": "64"
      },
      "t_uint256": {
        "encoding": "inplace",
        "label": "uint256",
        "numberOfBytes": "32"
      }
    }
  }
}